{
  "_format": "hh-sol-artifact-1",
  "contractName": "CertificateRegistry",
  "sourceName": "contracts/CertificateRegistry.sol",
  "abi": [
    {
      "inputs": [],
      "stateMutability": "nonpayable",
      "type": "constructor"
    },
    {
      "inputs": [
        {
          "internalType": "address",
          "name": "issuer",
          "type": "address"
        }
      ],
      "name": "addAuthorizedIssuer",
      "outputs": [],
      "stateMutability": "nonpayable",
      "type": "function"
    },
    {
      "inputs": [
        {
          "internalType": "address",
          "name": "",
          "type": "address"
        }
      ],
      "name": "authorizedIssuers",
      "outputs": [
        {
          "internalType": "bool",
          "name": "",
          "type": "bool"
        }
      ],
      "stateMutability": "view",
      "type": "function"
    },
    {
      "inputs": [
        {
          "internalType": "bytes32",
          "name": "",
          "type": "bytes32"
        }
      ],
      "name": "certificates",
      "outputs": [
        {
          "internalType": "bool",
          "name": "",
          "type": "bool"
        }
      ],
      "stateMutability": "view",
      "type": "function"
    },
    {
      "inputs": [
        {
          "internalType": "bytes32",
          "name": "certificateHash",
          "type": "bytes32"
        }
      ],
      "name": "issueCertificate",
      "outputs": [],
      "stateMutability": "nonpayable",
      "type": "function"
    },
    {
      "inputs": [],
      "name": "owner",
      "outputs": [
        {
          "internalType": "address",
          "name": "",
          "type": "address"
        }
      ],
      "stateMutability": "view",
      "type": "function"
    },
    {
      "inputs": [
        {
          "internalType": "bytes32",
          "name": "certificateHash",
          "type": "bytes32"
        }
      ],
      "name": "verifyCertificate",
      "outputs": [
        {
          "internalType": "bool",
          "name": "",
          "type": "bool"
        }
      ],
      "stateMutability": "view",
      "type": "function"
    }
  ],
  "bytecode": "0x6080604052348015600f57600080fd5b50336000806101000a81548173ffffffffffffffffffffffffffffffffffffffff021916908373ffffffffffffffffffffffffffffffffffffffff1602179055506106168061005f6000396000f3fe608060405234801561001057600080fd5b50600436106100625760003560e01c8063742f068814610067578063850c1768146100975780638da5cb5b146100c75780639c2b1d21146100e5578063a1f8182414610101578063f731fa0f1461011d575b600080fd5b610081600480360381019061007c91906103b9565b61014d565b60405161008e9190610401565b60405180910390f35b6100b160048036038101906100ac91906103b9565b61016d565b6040516100be9190610401565b60405180910390f35b6100cf610197565b6040516100dc919061045d565b60405180910390f35b6100ff60048036038101906100fa91906104a4565b6101bb565b005b61011b600480360381019061011691906103b9565b6102a3565b005b610137600480360381019061013291906104a4565b61035e565b6040516101449190610401565b60405180910390f35b60026020528060005260406000206000915054906101000a900460ff1681565b60006002600083815260200190815260200160002060009054906101000a900460ff169050919050565b60008054906101000a900473ffffffffffffffffffffffffffffffffffffffff1681565b60008054906101000a900473ffffffffffffffffffffffffffffffffffffffff1673ffffffffffffffffffffffffffffffffffffffff163373ffffffffffffffffffffffffffffffffffffffff1614610249576040517f08c379a000000000000000000000000000000000000000000000000000000000815260040161024090610554565b60405180910390fd5b60018060008373ffffffffffffffffffffffffffffffffffffffff1673ffffffffffffffffffffffffffffffffffffffff16815260200190815260200160002060006101000a81548160ff02191690831515021790555050565b600160003373ffffffffffffffffffffffffffffffffffffffff1673ffffffffffffffffffffffffffffffffffffffff16815260200190815260200160002060009054906101000a900460ff1661032f576040517f08c379a0000000000000000000000000000000000000000000000000000000008152600401610326906105c0565b60405180910390fd5b60016002600083815260200190815260200160002060006101000a81548160ff02191690831515021790555050565b60016020528060005260406000206000915054906101000a900460ff1681565b600080fd5b6000819050919050565b61039681610383565b81146103a157600080fd5b50565b6000813590506103b38161038d565b92915050565b6000602082840312156103cf576103ce61037e565b5b60006103dd848285016103a4565b91505092915050565b60008115159050919050565b6103fb816103e6565b82525050565b600060208201905061041660008301846103f2565b92915050565b600073ffffffffffffffffffffffffffffffffffffffff82169050919050565b60006104478261041c565b9050919050565b6104578161043c565b82525050565b6000602082019050610472600083018461044e565b92915050565b6104818161043c565b811461048c57600080fd5b50565b60008135905061049e81610478565b92915050565b6000602082840312156104ba576104b961037e565b5b60006104c88482850161048f565b91505092915050565b600082825260208201905092915050565b7f4f6e6c7920746865206f776e65722063616e20706572666f726d20746869732060008201527f616374696f6e0000000000000000000000000000000000000000000000000000602082015250565b600061053e6026836104d1565b9150610549826104e2565b604082019050919050565b6000602082019050818103600083015261056d81610531565b9050919050565b7f4e6f7420616e20617574686f72697a6564206973737565720000000000000000600082015250565b60006105aa6018836104d1565b91506105b582610574565b602082019050919050565b600060208201905081810360008301526105d98161059d565b905091905056fea264697066735822122022c11a0e19074068fba004bc0a72a2ab95122e6157c913d87854213e636004c164736f6c634300081b0033",
  "linkReferences": {},
  "deployedLinkReferences": {}
}