{
  "contractName": "CertificateRegistry",
  "abi": [
    {
      "inputs": [],
      "stateMutability": "nonpayable",
      "type": "constructor"
    },
    {
      "inputs": [
        {
          "internalType": "address",
          "name": "",
          "type": "address"
        }
      ],
      "name": "authorizedIssuers",
      "outputs": [
        {
          "internalType": "bool",
          "name": "",
          "type": "bool"
        }
      ],
      "stateMutability": "view",
      "type": "function"
    },
    {
      "inputs": [
        {
          "internalType": "bytes32",
          "name": "",
          "type": "bytes32"
        }
      ],
      "name": "certificates",
      "outputs": [
        {
          "internalType": "bool",
          "name": "",
          "type": "bool"
        }
      ],
      "stateMutability": "view",
      "type": "function"
    },
    {
      "inputs": [],
      "name": "owner",
      "outputs": [
        {
          "internalType": "address",
          "name": "",
          "type": "address"
        }
      ],
      "stateMutability": "view",
      "type": "function"
    },
    {
      "inputs": [
        {
          "internalType": "address",
          "name": "issuer",
          "type": "address"
        }
      ],
      "name": "addAuthorizedIssuer",
      "outputs": [],
      "stateMutability": "nonpayable",
      "type": "function"
    },
    {
      "inputs": [
        {
          "internalType": "bytes32",
          "name": "certificateHash",
          "type": "bytes32"
        }
      ],
      "name": "issueCertificate",
      "outputs": [],
      "stateMutability": "nonpayable",
      "type": "function"
    },
    {
      "inputs": [
        {
          "internalType": "bytes32",
          "name": "certificateHash",
          "type": "bytes32"
        }
      ],
      "name": "verifyCertificate",
      "outputs": [
        {
          "internalType": "bool",
          "name": "",
          "type": "bool"
        }
      ],
      "stateMutability": "view",
      "type": "function"
    }
  ],
  "bytecode": "0x608060405234801561000f575f80fd5b50335f806101000a81548173ffffffffffffffffffffffffffffffffffffffff021916908373ffffffffffffffffffffffffffffffffffffffff1602179055506105e48061005c5f395ff3fe608060405234801561000f575f80fd5b5060043610610060575f3560e01c8063742f068814610064578063850c1768146100945780638da5cb5b146100c45780639c2b1d21146100e2578063a1f81824146100fe578063f731fa0f1461011a575b5f80fd5b61007e6004803603810190610079919061039d565b61014a565b60405161008b91906103e2565b60405180910390f35b6100ae60048036038101906100a9919061039d565b610167565b6040516100bb91906103e2565b60405180910390f35b6100cc61018d565b6040516100d9919061043a565b60405180910390f35b6100fc60048036038101906100f7919061047d565b6101b0565b005b6101186004803603810190610113919061039d565b610294565b005b610134600480360381019061012f919061047d565b610349565b60405161014191906103e2565b60405180910390f35b6002602052805f5260405f205f915054906101000a900460ff1681565b5f60025f8381526020019081526020015f205f9054906101000a900460ff169050919050565b5f8054906101000a900473ffffffffffffffffffffffffffffffffffffffff1681565b5f8054906101000a900473ffffffffffffffffffffffffffffffffffffffff1673ffffffffffffffffffffffffffffffffffffffff163373ffffffffffffffffffffffffffffffffffffffff161461023d576040517f08c379a000000000000000000000000000000000000000000000000000000000815260040161023490610528565b60405180910390fd5b6001805f8373ffffffffffffffffffffffffffffffffffffffff1673ffffffffffffffffffffffffffffffffffffffff1681526020019081526020015f205f6101000a81548160ff02191690831515021790555050565b60015f3373ffffffffffffffffffffffffffffffffffffffff1673ffffffffffffffffffffffffffffffffffffffff1681526020019081526020015f205f9054906101000a900460ff1661031d576040517f08c379a000000000000000000000000000000000000000000000000000000000815260040161031490610590565b60405180910390fd5b600160025f8381526020019081526020015f205f6101000a81548160ff02191690831515021790555050565b6001602052805f5260405f205f915054906101000a900460ff1681565b5f80fd5b5f819050919050565b61037c8161036a565b8114610386575f80fd5b50565b5f8135905061039781610373565b92915050565b5f602082840312156103b2576103b1610366565b5b5f6103bf84828501610389565b91505092915050565b5f8115159050919050565b6103dc816103c8565b82525050565b5f6020820190506103f55f8301846103d3565b92915050565b5f73ffffffffffffffffffffffffffffffffffffffff82169050919050565b5f610424826103fb565b9050919050565b6104348161041a565b82525050565b5f60208201905061044d5f83018461042b565b92915050565b61045c8161041a565b8114610466575f80fd5b50565b5f8135905061047781610453565b92915050565b5f6020828403121561049257610491610366565b5b5f61049f84828501610469565b91505092915050565b5f82825260208201905092915050565b7f4f6e6c7920746865206f776e65722063616e20706572666f726d2074686973205f8201527f616374696f6e0000000000000000000000000000000000000000000000000000602082015250565b5f6105126026836104a8565b915061051d826104b8565b604082019050919050565b5f6020820190508181035f83015261053f81610506565b9050919050565b7f4e6f7420616e20617574686f72697a65642069737375657200000000000000005f82015250565b5f61057a6018836104a8565b915061058582610546565b602082019050919050565b5f6020820190508181035f8301526105a78161056e565b905091905056fea264697066735822122066bf48814ad7a165e34e10d7ee33f90d8484991e6e0dc256ffb1a251eb85d3cb64736f6c63430008150033",
  "immutableReferences": {},
  "source": "// SPDX-License-Identifier: MIT\n\npragma solidity ^0.8.0;\n\ncontract CertificateRegistry {\n    address public owner;\n\n    mapping(address => bool) public authorizedIssuers;\n    mapping(bytes32 => bool) public certificates;\n\n    constructor() {\n        owner = msg.sender;\n    }\n\n    modifier onlyOwner() {\n        require(msg.sender == owner, \"Only the owner can perform this action\");\n        _;\n    }\n\n    modifier onlyAuthorizedIssuer() {\n        require(authorizedIssuers[msg.sender], \"Not an authorized issuer\");\n        _;\n    }\n\n    function addAuthorizedIssuer(address issuer) public onlyOwner {\n        authorizedIssuers[issuer] = true;\n    }\n\n    function issueCertificate(\n        bytes32 certificateHash\n    ) public onlyAuthorizedIssuer {\n        certificates[certificateHash] = true;\n    }\n\n    function verifyCertificate(\n        bytes32 certificateHash\n    ) public view returns (bool) {\n        return certificates[certificateHash];\n    }\n}\n",
  "sourcePath": "/home/mumuzinho/school-records-verifiable-credentials/cert-blockchain/contracts/CertificateRegistry.sol",
  "compiler": {
    "name": "solc",
    "version": "0.8.21+commit.d9974bed.Emscripten.clang"
  },
  "schemaVersion": "3.4.16",
  "updatedAt": "2024-11-11T14:51:15.611Z",
  "devdoc": {
    "kind": "dev",
    "methods": {},
    "version": 1
  },
  "userdoc": {
    "kind": "user",
    "methods": {},
    "version": 1
  }
}